:020000040800F2
:1000000000200020E903000835040008350400083A
:1000100000000000000000000000000000000000E0
:10002000000000000000000000000000350400088F
:100030000000000000000000350400082102000854
:1000400035040008350400083504000835040008AC
:10005000350400083504000835040008350400089C
:10006000350400083504000835040008350400088C
:10007000350400083504000835040008350400087C
:1000800035040008350400080000000035040008AD
:10009000350400083504000835040008350400085C
:1000A000350400083504000835040008350400084C
:1000B00035040008000000003504000800000000BE
:1000C0005FF808F180B582B000AF78600A1CFB1CB5
:1000D0001A70FB1C1B78002B06D0084B074A51698D
:1000E0007A680A435A6106E0044B044A5269796807
:1000F000C9430A405A61BD4602B080BD00100240AB
:10010000B0B582B000AF021C3960FB1D1A70FB1D38
:100110001B787F2B2FD92D4CFB1D1B781A1C0F230E
:100120001340083B9908294AFB1D1B78181C0F2314
:100130000340083B9B0806339B00D3185B68FA1DFD
:100140001278101C03220240D200101CFF228240B1
:10015000D2431A403B689B01FF200340F81D007802
:10016000051C03202840C00083401A438B1D9B00C0
:10017000E3185A6026E0164CFB1D1B785BB29B0807
:100180001349FA1D127852B29208C03292005258A6
:10019000F91D0978081C03210140C900081CFF2132
:1001A0008140C94311403A689201FF200240F81D86
:1001B0000078051C03202840C00082400A43C03359
:1001C0009B001A51BD4602B0B0BDC04600ED00E034
:1001D00000E100E080B582B000AF78607B680E4A35
:1001E000934201D9012312E00C4B7A681202120AE1
:1001F000013A5A6001235B42181C0321FFF780FF7C
:10020000064B00229A60054B07221A600023181C37
:10021000BD4602B080BDC046FFFFFF0010E000E019
:1002200080B500AF0B4B1B685A1C0A4B1A60094B78
:100230001B68181CFA23990000F076FB0B1C1A1E91
:10024000054B9A4204D1054B1B685A1C034B1A609C
:10025000BD4680BD14000020E70300001800002008
:1002600080B584B000AF7860074B1B68FB6000E08E
:10027000C046054B1A68FB68D21A7B689A42F7D3CE
:10028000BD4604B080BDC0461400002080B584B0D7
:1002900000AF7860074B1B68FB6000E0C046054B71
:1002A0001A68FB68D21A7B689A42F7D3BD4604B03D
:1002B00080BDC0461800002090B583B000AF00F0AC
:1002C000BBF800F0FFF8424B1B68181C01F02AFA3B
:1002D000031C0C1C181C211C00223E4B00F04EFB82
:1002E000031C0C1C181C211C00F02AFB031C181CEE
:1002F000FFF770FF80231B03181C0121FFF7E2FEAC
:1003000080239B02181C0121FFF7DCFE324BC02228
:1003100092001A60304B01221A712F4B0022DA71C1
:100320002D4B00225A712C4B00229A712B4A2A4BDA
:10033000101C191C00F0A0F9274B01221A60264B53
:1003400000221A719023DA05234B101C191C00F0AF
:1003500093F9FB1D01221A700022214B1A60214BD8
:100360001A60FB1DFA1D1278D2431A70FB1D1B7810
:10037000012B0ED1194A80239B00101C191C00F080
:1003800031FA164A80235B00101C191C00F038FA61
:100390000DE0124A80239B00101C191C00F030FA5B
:1003A0000E4A80235B00101C191C00F01BFA9023DE
:1003B000DB05181C012100F0F1F9031E012B03D10C
:1003C0000120FFF763FF02E06420FFF749FFC8E761
:1003D0000000002000408F401C0000200008004862
:1003E00018000020140000200C488546002103E07E
:1003F0000B4B5B58435004310A480B4B42189A424E
:10040000F6D30A4A02E0002313600432084B9A42F2
:10041000F9D300F011F8FFF74FFFFEE700200020AE
:10042000B41A00080000002014000020140000206E
:1004300024000020FEE7000080B500AF1B4B1B4AE4
:10044000126801210A431A60184B184A5268184969
:100450000A405A60154B154A126816490A401A603C
:10046000124B124A126814490A401A600F4B0F4A85
:10047000526812490A405A600C4B0C4AD26A0F214A
:100480008A43DA62094B094A126B0D490A401A6322
:10049000064B064A526B01218A435A63034B0022E2
:1004A0009A6000F079F8BD4680BDC0460010024059
:1004B0000CB8FFF8FFFFF6FEFFFFFBFFFFFFC0FFDA
:1004C000ACFEFFFF80B584B000AF0023FB600023CB
:1004D000BB6000237B6000233B602A4B5B680C22DF
:1004E0001340FB60FB68042B07D0082B09D0002BBE
:1004F00031D1254B254A1A6031E0234B234A1A603B
:100500002DE0204B5A68F0239B031340BB601D4B2A
:100510005A6880235B0213407B60BB689B0C0233EC
:10052000BB607B68002B05D1BB68194A5A43164B48
:100530001A6014E0134BDB6A0F22134001333B6057
:100540001248396800F06AF9031C1A1CBB685A4348
:100550000D4B1A6003E00C4B0C4A1A60C046094B65
:100560005B68F02213401B090A4AD35CDBB2FB60D4
:10057000054B1A68FB68DA40034B1A60BD4604B0AD
:1005800080BDC046001002400000002000127A002A
:1005900000093D000400002080B582B000AF0023B8
:1005A0007B6000233B60314B304A12688021490256
:1005B0000A431A602D4B1A6880239B0213403B604C
:1005C0007B6801337B603B68002B04D17A68A023F1
:1005D000DB019A42EED1254B1A6880239B0213401F
:1005E00002D001233B6001E000233B603B68012B0C
:1005F00038D11F4B11221A601C4B1C4A52685A609A
:100600001A4B1A4A52685A60184B184A52681949CC
:100610000A405A60154B154A5268882149030A431B
:100620005A60124B114A1268802149040A431A6029
:10063000C0460E4B1A6880239B041340F9D00B4B25
:100640000A4A526803218A435A60084B074A526893
:1006500002210A435A60C046044B5B680C221340D7
:10066000082BF9D1BD4602B080BDC0460010024043
:1006700000200240FFFFC0FF80B586B000AF786069
:10068000396000237B6100233B610023FB60002372
:100690007B617CE07B6901229A40131C3B613B68D3
:1006A0001B683A691340FB60FA683B699A426BD158
:1006B0003B681B79012B03D03B681B79022B34D19B
:1006C0007B689B687A695200111C03228A40D243DE
:1006D0001A407B689A607B689A683B685B79191C52
:1006E0007B695B0099400B1C1A437B689A607B68AE
:1006F0009B889BB27A6992B2111C01228A4092B205
:10070000D24392B213409AB27B689A807B689B88EE
:100710009AB23B689B79191C7B699BB299400B1C70
:100720009BB213439AB27B689A807B681B687A6994
:100730005200111C03228A40D2431A407B681A607F
:100740007B681A683B681B79191C7B695B009940C0
:100750000B1C1A437B681A607B68DB687A6992B26B
:100760005200032191400A1CD2431A407B68DA6090
:100770007B68DA683B68DB79191C7B695B00994010
:100780000B1C1A437B68DA607B6901337B617B69F0
:100790000F2B00D87EE7BD4606B080BD80B584B083
:1007A00000AF78600A1CBB1C1A800F23FB180022C4
:1007B0001A707B681B8A9BB2BA1C128813409BB2CA
:1007C000002B04D00F23FB1801221A7003E00F2323
:1007D000FB1800221A700F23FB181B78181CBD464B
:1007E00004B080BD80B582B000AF78600A1CBB1C2D
:1007F0001A80BB1C1A887B689A61BD4602B080BD16
:1008000080B582B000AF78600A1CBB1C1A807B6880
:10081000BA1C12881A85BD4602B080BD002243086A
:100820008B4274D303098B425FD3030A8B4244D3B8
:10083000030B8B4228D3030C8B420DD3FF220902FA
:1008400012BA030C8B4202D31212090265D0030BB9
:100850008B4219D300E0090AC30B8B4201D3CB03AF
:10086000C01A5241830B8B4201D38B03C01A5241F1
:10087000430B8B4201D34B03C01A5241030B8B42F3
:1008800001D30B03C01A5241C30A8B4201D3CB02DE
:10089000C01A5241830A8B4201D38B02C01A5241C3
:1008A000430A8B4201D34B02C01A5241030A8B42C6
:1008B00001D30B02C01A5241CDD2C3098B4201D3DE
:1008C000CB01C01A524183098B4201D38B01C01A5C
:1008D000524143098B4201D34B01C01A52410309D3
:1008E0008B4201D30B01C01A5241C3088B4201D382
:1008F000CB00C01A524183088B4201D38B00C01A2F
:10090000524143088B4201D34B00C01A5241411A55
:1009100000D20146524110467047FFE701B5002062
:1009200000F00CF802BDC0460029F7D003B5FFF770
:1009300075FF0EBC4243891A1847C0467047C0462F
:1009400038B500220C4B041C0D1C00F051FF002890
:1009500004D1201C291C00F0AFFE38BD064B00223C
:10096000201C291C00F02EFB00F0A6FE80231B0695
:100970009C466044F1E7C0460000E041F0B55F46A8
:1009800056464D464446F0B40F0387B098464D0096
:100990003B0BCC0F061C924681469B466D0D019485
:1009A0006BD0664B9D4235D080275B467F031F434B
:1009B000F3009946624BFF00400F9C46074300231B
:1009C000BB46002665440093424617035000D20FF1
:1009D00053463F0B400D904600D172E0574A90427B
:1009E00067D080235B031F435346554A5B0FFF00CC
:1009F0001F43944653460021DB0060444246624058
:100A000092462D1A0E430F2E00D9A1E04D48B60094
:100A1000805987465B461E4300D076E000239B4604
:100A20009946023308260093CEE799464346BB46D3
:100A300001930091009B022B6BD1019B9A460021F0
:100A400053460122002789461A403C4B00213F03B0
:100A50000C0D24053F0B27433B4C1B0527401F4330
:100A60007F00D2077F0817434846391C07B03CBCBB
:100A700090469946A246AB46F0BD03433ED05B4646
:100A8000002B00D19CE1584600F0BCFE2823311C0D
:100A90001B1A021C5F46D940083A97400B1C96402F
:100AA0003B439B46B1460023284D00262D1A009358
:100AB0008AE7524603213A43A0D1002700230221AE
:100AC0009CE752463A4315D0002F00D185E1381CEF
:100AD00000F098FE021C28215046891A131CC840B9
:100AE0005146083B99409F400B1C07431748002183
:100AF000801A83E70027002301217FE700239B461C
:100B000099460133042600935EE703230C260093E5
:100B10005AE7032B00D13CE2012B00D0BFE11A1CA5
:100B2000019B1A4000210023002789468EE70023FD
:100B30008027994600223F03004B87E7FF0700000C
:100B400001FCFFFF741A0008FFFF0F800DFCFFFF80
:100B5000BB4500D951E100D14CE14A460392002245
:100B60005C469046013D180E3F0238431B0201933C
:100B7000030C994603041B0C4946061C201C1F1C31
:100B80000093FFF74BFE021C7A4302904946201C5B
:100B9000171CFFF7C9FE039B09041B0C19438F4266
:100BA0000CD9029B8919013B8E4200D952E18F4238
:100BB00000D84FE1029B8919023B0293CC1B201CF9
:100BC0004946FFF72BFE009F834647434946201CBA
:100BD000FFF7AAFE039A0B041404240C23439F423C
:100BE0000DD95A469B19013A9E4200D930E19F42E5
:100BF00000D82DE10222524294469B19E344029A06
:100C0000DB1B17045A463A439346019C170C220CEF
:100C1000101C04925A4611042204120C141C090CD4
:100C20007C4305924A43414347436118100C09181D
:100C30008C4203D980204002844667440C0C120485
:100C40000804120C3C198118A34200D2E5E000D13F
:100C5000DFE01F1B43465C1AA04592415242BF1A77
:100C6000B74200D10EE1381C4946FFF7D7FD009B83
:100C7000029043434946381C9846FFF755FE230C23
:100C80000F041F43B8450CD9029BBF19013BBE425C
:100C900000D9FBE0B84500D8F8E0029BBF19023B41
:100CA00002934346FF1A4946381CFFF7B7FD009BE5
:100CB000039043434946381C9846FFF735FE240409
:100CC0000904240C214388450CD9039B8919013B55
:100CD0008E4200D9DCE0884500D8D9E0039B891911
:100CE000023B03934346C91A029B039A1B04059CCB
:100CF0001A43100C13049146221C049F1B0C5A43E8
:100D000044437B437843E318170CDB199C4203D917
:100D100080246402A44660441C0C12041B04120CC0
:100D200000199B18814200D296E000D1FCE04A46AF
:100D300001231A4391469B4BEB18002B00DC99E0F2
:100D40004A4652070AD00F2249460A40042A05D0D3
:100D50000431494592418946524293445A46D20150
:100D600006D55A46904B1A4080239346DB00EB1879
:100D70008E4A934200DD62E64A465946D208490748
:100D800011435A4689465702514601225B053F0BE3
:100D90005B0D0A405AE680205A460003024208D002
:100DA000074206D107433F0399463F0B4246804B1B
:100DB0004CE65F4607433F033F0B221C7C4B45E656
:100DC00000F020FD031C2030272800DC5EE6083BF5
:100DD0009E400023B346994665E6504600F012FD5A
:100DE000021C2032272A00DC75E657460838874067
:100DF00000237BE6994500D2AFE65A46594654088F
:100E00004A46C8075208024303924A46D207904610
:100E1000A9E60027884500D31CE7019F5A46BC4637
:100E2000E044B845BF417F42BF19FF18013ABE42B6
:100E300006D2BC425FD800D19FE03F1B934609E732
:100E4000B742FAD1019B4345F3D9371B934601E7DB
:100E50009346D4E60293B1E64A468919013A8E4296
:100E600018D99146814200D061E7019A9A4200D098
:100E70005DE760E74F4F7F1B382F13DD012253469C
:100E80001A404FE601235B42994654E7029308E774
:100E9000039327E788423CD874D0914647E7019BEB
:100EA0009A4648E71F2F44DC434B4A469C465B4624
:100EB0006544FA40AB4013434A46AA40151C6A1EDB
:100EC00095415A46FA402B43171C5A0709D00F2266
:100ED0001A40042A05D01A1D9A429B415B42FF1812
:100EE000131C3A023ED55346012200211A40002726
:100EF00001238946AAE502235B429C46019AE3440A
:100F00009446E04490459B415B429B19DF193F1B8F
:100F1000A0E6019F4A467C00BC42BF417F42BF1908
:100F2000023AC91901949CE7002B95D10022019245
:100F30009BE75A46214B5B1BDA40202F27D0204BE2
:100F40009C465B466544AB4049460B43591E8B416A
:100F50001343072200271A4007D00F2200271A4008
:100F6000042AB8D17A077F023F0BDB081343994666
:100F7000012253461A40002368E54145BBD89346F9
:100F8000002767E6019C9C42C3D391466DE700238E
:100F9000DAE780275B463F031F433F033F0B019A7D
:100FA000034B53E5FF030000FFFFFFFEFE070000B9
:100FB000FF07000002FCFFFF1E040000E2FBFFFF32
:100FC0003E040000F0B54D4644465F465646F0B438
:100FD0000E1C111C3203520A470F1743C5001A0397
:100FE0005800DB0F9946520A4B0F83B01A43CB00CF
:100FF0000193CF4B7400F60F640DB046400D98423C
:1010000000D1E8E00123494659400B1C9E4200D123
:10101000B1E0261A002E00DC1CE1002842D1131C8E
:1010200001990B4300D0E6E06B0700D18EE00F235F
:101030002B40042B00D189E02A1DAA42AD41802318
:10104000012641466D427F191B043B400E40151C92
:10105000002B00D183E0B64B01349C4200D116E155
:101060003A1CB44BED081A40500764055202054380
:10107000120B640D002112030B0D1B056405120BEE
:101080001A436308AC4CF60714401C436400640820
:101090003443281C211C03B03CBC90469946A24610
:1010A000AB46F0BDA24B9C42BED080231B041A432A
:1010B000382E00DD03E11F2E00DD3FE12020831BE1
:1010C0009946131C49468B409C46019B6046F34061
:1010D00003430198F2408840011C481E81410B43A4
:1010E000EB1A9D4280411D1CBA1A4042171A3B025E
:1010F00000D4A8E07A02560A002E00D1CAE0301CC3
:1011000000F080FB031C083B1F2B00DDCBE02822F6
:10111000291C121AD1409E400A1C9D4032439C4219
:1011200000DDC8E01C1B671C1F2F00DDEDE01F2346
:10113000291C1C1B131CA540A340F9406C1EA54193
:10114000FA4019430D43171C00246DE78023012644
:1011500042461B043B401640002B00D07BE7744BFB
:10116000ED0878070543FA089C423BD0120364055A
:10117000120B640D7EE7231A9A46002B00DCA5E0D3
:10118000002844D06A48844200D14DE78020000402
:1011900002435346382B00DC1CE1019B1A43511ECD
:1011A0008A41D1B200224919A94280410D1CD219AD
:1011B000404217183B0246D55D4B01349C4200D19A
:1011C00069E101205B4A6B083A4028401843D50783
:1011D0000543570828E7131C01990B4300D111E779
:1011E0004B4613E72B1C134351D080231B031A4398
:1011F0001203120B3EE7013E002E00D080E0691A78
:101200008D429B41BA1A5B42D71A0D1C6FE7101C26
:10121000019B184300D107E701235B429C46E2444F
:101220005346002B00D002E1019BD2195919A94263
:101230009B415B42D7180D1CBCE76346034300D1BA
:1012400028E1071C65466B0700D0F0E601264346FF
:101250001E4084E7002E00D081E0601C4005400D58
:10126000012800DC07E10199681A84466545B6410A
:10127000B81A7642861B300200D4A1E08C464D1B82
:10128000AC458941D21B4942561A984634E70022A0
:101290000025EFE6281C00F0B5FA2030031C083BBF
:1012A0001F2B00DC33E7021C283A95402A1C00253E
:1012B0009C4200DC36E71F4FE41A1740B4E6019B5E
:1012C0001A43511E8A41D3B2002209E7002B00D0F5
:1012D00001E1601C43055B0D012B00DCB0E0144B09
:1012E000984200D11EE1019BD2195919A9429B4194
:1012F0005B42D2184908D5070D435708041C93E6F2
:101300000B4B9C4200D0D3E68EE6211C131C1F39E8
:10131000CB40191C202F00D18EE03F231C1BA24084
:1013200015436A1E954100270D4300248BE7C046F4
:10133000FF070000FFFF7FFFFFFF0F80331C101C23
:10134000203BD840202E79D040239B1B9A40131C71
:10135000019A1343591E8B4100220343C0E6002C1F
:1013600053D0C74CA04200D1B0E0802471428946DE
:10137000240427434946382900DDCDE01F2900DD3C
:1013800059E120243E1C611A8E408A46B0464946E7
:101390002E1CCE405146B4468D40644646464946D2
:1013A00026436C1EA541CF4035430199D71B8C467F
:1013B0004D1BAC4592415242BF1A041C984696E61A
:1013C00063466546334300D096E600260027002496
:1013D0000025C4E61F2B61DC2020C31A9B46131C8A
:1013E00059468B4051469946019BCB409C464B4603
:1013F000604603439C465B46019999406346481EFC
:10140000814119435346DA40CDE63C1C2C435DD064
:10141000F1438946002955D10199D21B8C464D1BB9
:10142000AC4589414942571A041C98465FE69448E6
:10143000844200D0ADE6F7E5002271E7002387E79C
:101440003B1C2B43002C00D0DAE0002B00D113E131
:10145000131C01990B4300D1E6E54919A9429B41B0
:10146000D2195B42D7183B0200D421E1854B0D1CF9
:101470001F40041CD8E5381C2843002C40D100280C
:1014800000D083E0101C0199084303D0171C0D1CE9
:101490009846C9E500260027002560E65046131C43
:1014A0002038C340181C5346202B00D1C1E04023F4
:1014B00051465B1A9A40019911434A1E91410022FC
:1014C000014370E66E4CA04200D053E7171C019D0B
:1014D000041C9846A8E5002C28D13C1C2C4300D1C4
:1014E0008AE0DB439A46002B00D082E0019BD219B0
:1014F0009C4665449D42894149425718041C59E65F
:1015000000285BD1101C0199084300D1A4E0171CEE
:101510000D1C98465A4C87E53D436F1EBD41002780
:10152000EDB242E7041C0027002518E6544CA04207
:1015300062D0534680245B429A4624042743534694
:10154000382B00DD8EE01F2B00DD9DE02024E31A08
:101550009B463B1C59468B40514699462B1CCB4021
:101560009C464B46644623439C465B469D406346EF
:101570006C1EA541CF401D43019BBF189C4665448E
:101580009D4292415242BF18041C13E6101C01995F
:10159000084300D148E5681A844685428041BE1A56
:1015A0004042301A060200D447E68C464D1BAC453B
:1015B0008941D21B4942571A984635E5101C0199BA
:1015C000084334D080247807ED08FF08240328431B
:1015D000274208D0D608264205D1C90852070A4337
:1015E000101C371C9846FF00420F1743C500244CBF
:1015F0001AE5234CA042A2D1171C019D041C13E53F
:10160000002B35D0131C01990B4310D08024780790
:10161000ED08FF08240328432742E4D0D3082342DF
:10162000E1D1C90852070A43101C1F1CDBE7144C08
:10163000FAE400223FE74C463E1C203CE640494687
:10164000341C202932D04026761AB7403D436F1E05
:10165000BD4100272543A8E680270026FF03084C4C
:1016600000257CE53D436F1EBD410027EDB283E7B9
:10167000171C019D024CD7E4171C019DD4E4C04601
:10168000FF070000FFFF7FFF54463B1C203CE34068
:101690001C1C5346202B0DD0402351465B1A9F4003
:1016A0003D436F1EBD410027254365E70027CDE779
:1016B0000D1CC8E50027F3E70B0330B5134C1A0BDC
:1016C0004B00051C5B0DC90F0020A34210DD104824
:1016D00083420EDC80200F4C40030243E41A1F2C8F
:1016E0000ADD0D48C31ADA40131C4842434058181B
:1016F00030BD0A4BC818FBE7281CE040084CA44644
:1017000063449A40131C0343EFE7C046FE03000006
:101710001D0400003304000013040000FFFFFF7FDE
:10172000EDFBFFFF10B5041E10D000F06BF8144A5B
:10173000121A0A281ADC0B23211C1B1AD940153057
:101740000B03520584401B0B520D01E000220023C5
:1017500000211B03201C1C0B0B0D1B052343094CF4
:101760001205234013435B00590810BD031C0B3BBB
:101770009C40520523031B0B520D0024E8E7C04692
:101780001E040000FFFF0F808446101C62468C463A
:10179000191C634600E0C0461FB500F005F900289B
:1017A00001D40021C8421FBD10B500F049F84042E5
:1017B000013010BD10B500F0F7F8002801DB002063
:1017C00010BD012010BDC04610B500F0EDF8002896
:1017D00001DD002010BD012010BDC04610B500F095
:1017E00073F8002801DC002010BD012010BDC046A8
:1017F00010B500F069F8002801DA002010BD0120C2
:1018000010BDC0461C2101231B04984201D3000CCB
:1018100010391B0A984201D3000A08391B09984263
:1018200001D30009043902A2105C40187047C04679
:101830000403020201010101000000000000000099
:10184000F0B55F464D4644465646F0B41F035C0073
:10185000DB0F99461B4B0E034D00C90F8446360B18
:101860006D0D8B4690463F0B640D9D420CD0154B81
:101870009C4210D00123A54214D0181C3CBC9046B9
:101880009946A246AB46F0BD311C01230143F4D179
:101890000C4B9C42EED13A430123002AEDD10123A7
:1018A000A542EAD1BE42E8D1C445E6D1CB4506D037
:1018B000002DE2D13043031C581E8341DDE7002395
:1018C000DBE7C046FF070000F0B5574645464E46E9
:1018D000E0B40F034E00C90F8A4632491D035C0075
:1018E00084463F0B760D90462D0B640DDB0F8E4228
:1018F0000FD08C4239D0002E10D1384341424141A3
:101900008946002C27D12A4325D1002000290ED159
:1019100008E0391C01432ED1B44226D0002C0BD054
:101920009A450DD05346594201231943081C1CBC4B
:1019300090469946A246F0BD2A43F3D09A45F1D18C
:10194000A642EFDC1ADA50464142484101234142A7
:101950001943081CEBE74A46002AE1D05842584197
:10196000012241421143081CE1E7291C114302D125
:10197000002EC2D0D4E702204042D8E7AF42D1D8EF
:1019800009D00020AF42D2D2504641424841012303
:1019900040421843CBE7C445C4D80020C445F3D324
:1019A000C5E7C046FF070000F0B55F464D46444618
:1019B00056468046F0B4061C0803000B84462C48AB
:1019C0004C001F035D00C90F640D8B4691463F0B11
:1019D0006D0DDB0F844212D0854225D0002C14D12E
:1019E00061460E4370424641002D35D0002E21D075
:1019F00058425841012143420B43181C0EE06146F6
:101A0000022031430AD1A5420ED0002D12D13A4313
:101A100010D15B46594201231943081C3CBC904637
:101A20009946A246AB46F0BD391C02201143F5D1C0
:101A3000002CD5D09B45ECD1AC42EADC05DBBC45A3
:101A4000E7D80FD00020BC45E8D258464142484173
:101A5000414201200843E1E73A43C7D10020002E6C
:101A6000DCD1D6E7C845D4D80020C845EDD3D5E7AA
:101A7000FF070000500B00083E0A0008240B000876
:101A80002A0A0008240B00082E0B0008240B00086B
:101A90002A0A00083E0A00083E0A00082E0B000829
:101AA0002A0A0008340A0008340A0008340A000828
:041AB000960D000887
:101AB400006CDC02000000000000000001020304CE
:041AC4000607080900
:0400000508000000EF
:00000001FF
